{
    "contractName": "StakingTokenContract",
    "abi": [
        {
            "inputs": [
                {
                    "internalType": "address",
                    "name": "tokenStake",
                    "type": "address"
                },
                {
                    "internalType": "address",
                    "name": "_recipient",
                    "type": "address"
                }
            ],
            "stateMutability": "nonpayable",
            "type": "constructor"
        },
        {
            "anonymous": false,
            "inputs": [
                {
                    "indexed": false,
                    "internalType": "address",
                    "name": "accountStaking",
                    "type": "address"
                },
                {
                    "indexed": false,
                    "internalType": "uint256",
                    "name": "_stakeAmount",
                    "type": "uint256"
                },
                {
                    "indexed": false,
                    "internalType": "uint32",
                    "name": "startdateStaking",
                    "type": "uint32"
                },
                {
                    "indexed": false,
                    "internalType": "uint32",
                    "name": "periodStaking",
                    "type": "uint32"
                },
                {
                    "indexed": false,
                    "internalType": "uint256",
                    "name": "ratioStaking",
                    "type": "uint256"
                }
            ],
            "name": "CreateStake",
            "type": "event"
        },
        {
            "anonymous": false,
            "inputs": [
                {
                    "indexed": true,
                    "internalType": "address",
                    "name": "previousOwner",
                    "type": "address"
                },
                {
                    "indexed": true,
                    "internalType": "address",
                    "name": "newOwner",
                    "type": "address"
                }
            ],
            "name": "OwnershipTransferred",
            "type": "event"
        },
        {
            "anonymous": false,
            "inputs": [
                {
                    "indexed": false,
                    "internalType": "address",
                    "name": "accountStaking",
                    "type": "address"
                },
                {
                    "indexed": false,
                    "internalType": "uint256",
                    "name": "_stakeAmount",
                    "type": "uint256"
                },
                {
                    "indexed": false,
                    "internalType": "uint32",
                    "name": "enddateStaking",
                    "type": "uint32"
                },
                {
                    "indexed": false,
                    "internalType": "uint32",
                    "name": "recieveDate",
                    "type": "uint32"
                }
            ],
            "name": "ReleaseStake",
            "type": "event"
        },
        {
            "anonymous": false,
            "inputs": [
                {
                    "indexed": false,
                    "internalType": "uint256",
                    "name": "_value",
                    "type": "uint256"
                }
            ],
            "name": "changeDailyAPY",
            "type": "event"
        },
        {
            "anonymous": false,
            "inputs": [
                {
                    "indexed": false,
                    "internalType": "address",
                    "name": "accountStaking",
                    "type": "address"
                },
                {
                    "indexed": false,
                    "internalType": "uint256",
                    "name": "rewardAmount",
                    "type": "uint256"
                }
            ],
            "name": "recieveReward",
            "type": "event"
        },
        {
            "inputs": [
                {
                    "internalType": "uint256",
                    "name": "_stakeOrder",
                    "type": "uint256"
                }
            ],
            "name": "calculateReward",
            "outputs": [
                {
                    "internalType": "uint256",
                    "name": "",
                    "type": "uint256"
                }
            ],
            "stateMutability": "view",
            "type": "function"
        },
        {
            "inputs": [
                {
                    "internalType": "uint256",
                    "name": "_value",
                    "type": "uint256"
                }
            ],
            "name": "changeDailyAPY90",
            "outputs": [],
            "stateMutability": "nonpayable",
            "type": "function"
        },
        {
            "inputs": [
                {
                    "internalType": "uint256",
                    "name": "_stakeAmount",
                    "type": "uint256"
                }
            ],
            "name": "createStake90Days",
            "outputs": [],
            "stateMutability": "nonpayable",
            "type": "function"
        },
        {
            "inputs": [],
            "name": "getBalanceOfRecipient",
            "outputs": [
                {
                    "internalType": "uint256",
                    "name": "",
                    "type": "uint256"
                }
            ],
            "stateMutability": "view",
            "type": "function"
        },
        {
            "inputs": [],
            "name": "owner",
            "outputs": [
                {
                    "internalType": "address",
                    "name": "",
                    "type": "address"
                }
            ],
            "stateMutability": "view",
            "type": "function"
        },
        {
            "inputs": [
                {
                    "internalType": "uint256",
                    "name": "_stakeOrder",
                    "type": "uint256"
                }
            ],
            "name": "releaseStake90Days",
            "outputs": [],
            "stateMutability": "nonpayable",
            "type": "function"
        },
        {
            "inputs": [],
            "name": "renounceOwnership",
            "outputs": [],
            "stateMutability": "nonpayable",
            "type": "function"
        },
        {
            "inputs": [],
            "name": "returnAllRewards",
            "outputs": [],
            "stateMutability": "nonpayable",
            "type": "function"
        },
        {
            "inputs": [
                {
                    "internalType": "uint256",
                    "name": "_stakeOrder",
                    "type": "uint256"
                }
            ],
            "name": "returnReward",
            "outputs": [
                {
                    "internalType": "uint256",
                    "name": "",
                    "type": "uint256"
                }
            ],
            "stateMutability": "nonpayable",
            "type": "function"
        },
        {
            "inputs": [
                {
                    "internalType": "address",
                    "name": "_stakeholder",
                    "type": "address"
                }
            ],
            "name": "stakeOfBalance",
            "outputs": [
                {
                    "internalType": "uint256",
                    "name": "",
                    "type": "uint256"
                }
            ],
            "stateMutability": "view",
            "type": "function"
        },
        {
            "inputs": [
                {
                    "internalType": "uint256",
                    "name": "",
                    "type": "uint256"
                }
            ],
            "name": "stakeOfOrder",
            "outputs": [
                {
                    "internalType": "address",
                    "name": "accountStaking",
                    "type": "address"
                },
                {
                    "internalType": "uint256",
                    "name": "stakedAmount",
                    "type": "uint256"
                },
                {
                    "internalType": "uint256",
                    "name": "ratioStaking",
                    "type": "uint256"
                },
                {
                    "internalType": "uint32",
                    "name": "startdateStaking",
                    "type": "uint32"
                },
                {
                    "internalType": "uint32",
                    "name": "periodStaking",
                    "type": "uint32"
                },
                {
                    "internalType": "uint32",
                    "name": "startdateReward",
                    "type": "uint32"
                },
                {
                    "internalType": "uint32",
                    "name": "enddateStaking",
                    "type": "uint32"
                }
            ],
            "stateMutability": "view",
            "type": "function"
        },
        {
            "inputs": [
                {
                    "internalType": "address",
                    "name": "",
                    "type": "address"
                },
                {
                    "internalType": "uint256",
                    "name": "",
                    "type": "uint256"
                }
            ],
            "name": "stakesListOfAddress",
            "outputs": [
                {
                    "internalType": "uint256",
                    "name": "",
                    "type": "uint256"
                }
            ],
            "stateMutability": "view",
            "type": "function"
        },
        {
            "inputs": [
                {
                    "internalType": "address",
                    "name": "newOwner",
                    "type": "address"
                }
            ],
            "name": "transferOwnership",
            "outputs": [],
            "stateMutability": "nonpayable",
            "type": "function"
        }
    ],
    "bytecode": "608060405260196003556004805463ffffffff19166276a7001790553480156200002857600080fd5b5060405162001895380380620018958339810160408190526200004b91620001ee565b620000563362000172565b6001600160a01b038216158015906200007757506001600160a01b03811615155b620000c95760405162461bcd60e51b815260206004820152601f60248201527f416464726573732063616e206e6f74206265207a65726f20616464726573730060448201526064015b60405180910390fd5b620000df82620001c260201b620012bc1760201c565b6200012d5760405162461bcd60e51b815260206004820152601f60248201527f596f75206d75737420696e70757420636f6e74726163742061646472657373006044820152606401620000c0565b600280546001600160a01b039384166001600160a01b0319909116179055600480549190921664010000000002600160201b600160c01b031990911617905562000226565b600080546001600160a01b038381166001600160a01b0319831681178455604051919092169283917f8be0079c531659141344cd1fd0a4f28419497f9722a3daafe3b4186f6b6457e09190a35050565b6001600160a01b03163b151590565b80516001600160a01b0381168114620001e957600080fd5b919050565b600080604083850312156200020257600080fd5b6200020d83620001d1565b91506200021d60208401620001d1565b90509250929050565b61165f80620002366000396000f3fe608060405234801561001057600080fd5b50600436106100cf5760003560e01c80638da5cb5b1161008c578063b8d05b5911610066578063b8d05b5914610216578063d2d7231f14610229578063ebaf7f2f1461023c578063f2fde38b1461024f57600080fd5b80638da5cb5b1461014557806399ec777714610160578063a2df345f1461016857600080fd5b80630bb4bbd9146100d4578063486077ba146100e95780634aa71f0f1461010f57806363a3cd99146101175780636f169c7c1461012a578063715018a61461013d575b600080fd5b6100e76100e2366004611352565b610262565b005b6100fc6100f7366004611387565b610348565b6040519081526020015b60405180910390f35b6100e7610445565b6100e7610125366004611352565b61069d565b6100e7610138366004611352565b610a5c565b6100e7610d4a565b6000546040516001600160a01b039091168152602001610106565b6100fc610d80565b6101cc610176366004611352565b60066020526000908152604090208054600182015460028301546003909301546001600160a01b0390921692909163ffffffff80821691600160201b8104821691600160401b8204811691600160601b90041687565b604080516001600160a01b03909816885260208801969096529486019390935263ffffffff91821660608601528116608085015290811660a08401521660c082015260e001610106565b6100fc6102243660046113a2565b610e2b565b6100fc610237366004611352565b610e5c565b6100fc61024a366004611352565b611060565b6100e761025d366004611387565b611221565b6000546001600160a01b031633146102955760405162461bcd60e51b815260040161028c906113cc565b60405180910390fd5b6000811161030d576040805162461bcd60e51b81526020600482015260248101919091527f4150592076616c75652068617320746f206265206d6f7265207468616e20302c60448201527f2074727920333020666f722028302e3325206461696c792920696e7374656164606482015260840161028c565b60038190556040518181527fd7d761bb3b9084eb6bf4d54647488707992287f64a194c65d5b0cbd963d3b0079060200160405180910390a150565b6000816001600160a01b0381166103a15760405162461bcd60e51b815260206004820152601f60248201527f416464726573732063616e206e6f74206265207a65726f206164647265737300604482015260640161028c565b6001600160a01b038316600090815260056020526040812054815b8181101561043b576001600160a01b038616600090815260056020526040812080546006918391859081106103f3576103f3611401565b9060005260206000200154815260200190815260200160002060010154905061042581856112cb90919063ffffffff16565b93505080806104339061142d565b9150506103bc565b5090949350505050565b336000908152600560205260409020546104715760405162461bcd60e51b815260040161028c90611446565b33600090815260056020526040812054815b818110156105435733600090815260056020526040902080546104cb916104c491849081106104b4576104b4611401565b9060005260206000200154610e5c565b84906112cb565b336000908152600560205260408120805492955042926006929190859081106104f6576104f6611401565b9060005260206000200154815260200190815260200160002060030160086101000a81548163ffffffff021916908363ffffffff160217905550808061053b9061142d565b915050610483565b50600254600480546040516370a0823160e01b81526001600160a01b03600160201b909204821692810192909252849216906370a0823190602401602060405180830381865afa15801561059b573d6000803e3d6000fd5b505050506040513d601f19601f820116820180604052508101906105bf9190611473565b10156105dd5760405162461bcd60e51b815260040161028c9061148c565b600254600480546040516323b872dd60e01b81526001600160a01b03938416936323b872dd9361061c93600160201b90049091169133918891016114cf565b6020604051808303816000875af115801561063b573d6000803e3d6000fd5b505050506040513d601f19601f8201168201806040525081019061065f91906114f3565b5060408051338152602081018490527f78542e0bc2ce62277c1aa25c4eefef2a4276d83b45e54aba29d540ce0e8ee6a3910160405180910390a15050565b80600081116106be5760405162461bcd60e51b815260040161028c90611515565b336000908152600560205260409020546106ea5760405162461bcd60e51b815260040161028c90611446565b600082815260066020908152604091829020825160e08101845281546001600160a01b03168082526001830154938201939093526002820154938101939093526003015463ffffffff8082166060850152600160201b820481166080850152600160401b8204811660a0850152600160601b9091041660c083015233146107b35760405162461bcd60e51b815260206004820181905260248201527f596f7520617265206e6f74206f776e6572206f66207374616b65206f72646572604482015260640161028c565b60008160600151426107c59190611556565b9050816080015163ffffffff168163ffffffff1610156108275760405162461bcd60e51b815260206004820181905260248201527f54696d652072656c65617365207374616b65206973206e6f7420656e6f756768604482015260640161028c565b3360009081526005602090815260408220549084015160c085015191929091905b838110156109345733600090815260056020526040902080548991908390811061087457610874611401565b9060005260206000200154036109225733600090815260056020526040902061089e60018661157b565b815481106108ae576108ae611401565b6000918252602080832090910154338352600590915260409091208054839081106108db576108db611401565b600091825260208083209091019290925533815260059091526040902080548061090757610907611592565b60019003818190600052602060002001600090559055610934565b8061092c8161142d565b915050610848565b5061093e87611060565b5060008781526006602052604080822080546001600160a01b03191681556001810183905560028082019390935560030180546fffffffffffffffffffffffffffffffff1916905590546004805492516323b872dd60e01b81526001600160a01b03928316936323b872dd936109c293600160201b909204169133918891016114cf565b6020604051808303816000875af11580156109e1573d6000803e3d6000fd5b505050506040513d601f19601f82011682018060405250810190610a0591906114f3565b50604080513381526020810184905263ffffffff838116828401524216606082015290517f6900e452f4384fb48c680c2c39162a59657cbd8d8f298158cba36877085499909181900360800190a150505050505050565b8060008111610aad5760405162461bcd60e51b815260206004820152601d60248201527f416d6f756e74206d7573742062652067726561746572207468616e2030000000604482015260640161028c565b6002546040516370a0823160e01b815233600482015283916001600160a01b0316906370a0823190602401602060405180830381865afa158015610af5573d6000803e3d6000fd5b505050506040513d601f19601f82011682018060405250810190610b199190611473565b1015610b715760405162461bcd60e51b815260206004820152602160248201527f596f7520617265206e6f7420656e6f75676820746f6b656e20746f207374616b6044820152606560f81b606482015260840161028c565b610b7f600180546001019055565b6000610b8a60015490565b33600081815260056020908152604080832080546001808201835591855283852001869055858452600690925290912080546001600160a01b03191690921782558101859055600380820180546bffffffff00000000ffffffff19164263ffffffff818116928317600160401b9390930292909217808455935460028601556004805467ffffffff0000000019909516948316600160201b029490941790925591549394509192610c3d929116906115a8565b60038201805463ffffffff92909216600160601b0263ffffffff60601b19909216919091179055600254600480546040516323b872dd60e01b81526001600160a01b03938416936323b872dd93610ca4933393600160201b909104909216918a91016114cf565b6020604051808303816000875af1158015610cc3573d6000803e3d6000fd5b505050506040513d601f19601f82011682018060405250810190610ce791906114f3565b50600454600354604080513381526020810188905263ffffffff428116928201929092529216606083015260808201527f12375973e89545bf6757c27274c485bd73e5913efe089d129f75344b99917a599060a00160405180910390a150505050565b6000546001600160a01b03163314610d745760405162461bcd60e51b815260040161028c906113cc565b610d7e60006112de565b565b600080546001600160a01b03163314610dab5760405162461bcd60e51b815260040161028c906113cc565b600254600480546040516370a0823160e01b8152600160201b9091046001600160a01b03908116928201929092529116906370a0823190602401602060405180830381865afa158015610e02573d6000803e3d6000fd5b505050506040513d601f19601f82011682018060405250810190610e269190611473565b905090565b60056020528160005260406000208181548110610e4757600080fd5b90600052602060002001600091509150505481565b60008160008111610e7f5760405162461bcd60e51b815260040161028c90611515565b33600090815260056020526040902054610eab5760405162461bcd60e51b815260040161028c90611446565b600083815260066020908152604091829020825160e08101845281546001600160a01b03168082526001830154938201939093526002820154938101939093526003015463ffffffff8082166060850152600160201b820481166080850152600160401b8204811660a0850152600160601b9091041660c08301523314610f745760405162461bcd60e51b815260206004820181905260248201527f596f7520617265206e6f74206f776e6572206f66207374616b65206f72646572604482015260640161028c565b6000610fa662015180610fa08460a0015163ffffffff164263ffffffff1661132e90919063ffffffff16565b9061133a565b90506000610fcb612710610fa08560400151866020015161134690919063ffffffff16565b905060006110276110208560c0015163ffffffff168660a0015163ffffffff161015610ffb578560a00151611001565b8560c001515b63ffffffff168660c0015163ffffffff1661132e90919063ffffffff16565b8390611346565b905060008460c0015163ffffffff164263ffffffff1610156110525761104d8385611346565b611054565b815b98975050505050505050565b600081600081116110835760405162461bcd60e51b815260040161028c90611515565b600061108e84610e5c565b600254600480546040516370a0823160e01b8152600160201b9091046001600160a01b039081169282019290925292935083929116906370a0823190602401602060405180830381865afa1580156110ea573d6000803e3d6000fd5b505050506040513d601f19601f8201168201806040525081019061110e9190611473565b101561112c5760405162461bcd60e51b815260040161028c9061148c565b6000848152600660205260409081902060030180546bffffffff00000000000000001916600160401b4263ffffffff16021790556002546004805492516323b872dd60e01b81526001600160a01b03928316936323b872dd9361119d93600160201b909204169133918791016114cf565b6020604051808303816000875af11580156111bc573d6000803e3d6000fd5b505050506040513d601f19601f820116820180604052508101906111e091906114f3565b5060408051338152602081018390527f78542e0bc2ce62277c1aa25c4eefef2a4276d83b45e54aba29d540ce0e8ee6a3910160405180910390a19392505050565b6000546001600160a01b0316331461124b5760405162461bcd60e51b815260040161028c906113cc565b6001600160a01b0381166112b05760405162461bcd60e51b815260206004820152602660248201527f4f776e61626c653a206e6577206f776e657220697320746865207a65726f206160448201526564647265737360d01b606482015260840161028c565b6112b9816112de565b50565b6001600160a01b03163b151590565b60006112d782846115d0565b9392505050565b600080546001600160a01b038381166001600160a01b0319831681178455604051919092169283917f8be0079c531659141344cd1fd0a4f28419497f9722a3daafe3b4186f6b6457e09190a35050565b60006112d7828461157b565b60006112d782846115e8565b60006112d7828461160a565b60006020828403121561136457600080fd5b5035919050565b80356001600160a01b038116811461138257600080fd5b919050565b60006020828403121561139957600080fd5b6112d78261136b565b600080604083850312156113b557600080fd5b6113be8361136b565b946020939093013593505050565b6020808252818101527f4f776e61626c653a2063616c6c6572206973206e6f7420746865206f776e6572604082015260600190565b634e487b7160e01b600052603260045260246000fd5b634e487b7160e01b600052601160045260246000fd5b60006001820161143f5761143f611417565b5060010190565b602080825260139082015272596f7520617265206e6f74207374616b696e6760681b604082015260600190565b60006020828403121561148557600080fd5b5051919050565b60208082526023908201527f42616c616e6365206973206e6f7420656e6f75676820746f2070617920726577604082015262185c9960ea1b606082015260800190565b6001600160a01b039384168152919092166020820152604081019190915260600190565b60006020828403121561150557600080fd5b815180151581146112d757600080fd5b60208082526021908201527f5374616b654f72646572206d7573742062652067726561746572207468616e206040820152600360fc1b606082015260800190565b600063ffffffff8381169083168181101561157357611573611417565b039392505050565b60008282101561158d5761158d611417565b500390565b634e487b7160e01b600052603160045260246000fd5b600063ffffffff8083168185168083038211156115c7576115c7611417565b01949350505050565b600082198211156115e3576115e3611417565b500190565b60008261160557634e487b7160e01b600052601260045260246000fd5b500490565b600081600019048311821515161561162457611624611417565b50029056fea264697066735822122062b9a55562f4b6c5d59d6998ba66bc0a5d8ca6618dfa6a876e9b053215f230ef64736f6c634300080f0033",
    "sourcePath": "d:/smart_contract_boilerplate-master/smart_contract_boilerplate-master/contracts/token/StakingTokenContract.sol",
    "compiler": {
        "name": "solc",
        "version": "0.8.15+commit.e14f2714"
    },
    "functionHashes": {
        "calculateReward(uint256)": "d2d7231f",
        "changeDailyAPY90(uint256)": "0bb4bbd9",
        "createStake90Days(uint256)": "6f169c7c",
        "getBalanceOfRecipient()": "99ec7777",
        "owner()": "8da5cb5b",
        "releaseStake90Days(uint256)": "63a3cd99",
        "renounceOwnership()": "715018a6",
        "returnAllRewards()": "4aa71f0f",
        "returnReward(uint256)": "ebaf7f2f",
        "stakeOfBalance(address)": "486077ba",
        "stakeOfOrder(uint256)": "a2df345f",
        "stakesListOfAddress(address,uint256)": "b8d05b59",
        "transferOwnership(address)": "f2fde38b"
    },
    "gasEstimates": {
        "creation": {
            "codeDepositCost": "1145400",
            "executionCost": "infinite",
            "totalCost": "infinite"
        },
        "external": {
            "calculateReward(uint256)": "infinite",
            "changeDailyAPY90(uint256)": "25553",
            "createStake90Days(uint256)": "infinite",
            "getBalanceOfRecipient()": "infinite",
            "owner()": "2324",
            "releaseStake90Days(uint256)": "infinite",
            "renounceOwnership()": "28225",
            "returnAllRewards()": "infinite",
            "returnReward(uint256)": "infinite",
            "stakeOfBalance(address)": "infinite",
            "stakeOfOrder(uint256)": "9120",
            "stakesListOfAddress(address,uint256)": "4755",
            "transferOwnership(address)": "28397"
        }
    }
}